:100000001AC034C033C032C087C030C02FC02EC029
:100010002DC02CC02BC02AC029C028C027C0003743
:10002000003800360101010101010102040810201D
:1000300001030000000011241FBECFE5D2E0DEBFA7
:10004000CDBF10E0A0E6B0E0ECE9F3E002C005901F
:100050000D92A036B107D9F710E0A0E6B0E001C0DC
:100060001D92AA36B107E1F793D196C1C9CF80E0BE
:1000700061E059D161E070E080E090E096D080E0EE
:1000800060E051D161E070E080E090E08ED00895B2
:100090000F931F9381E060E00AD181E061E043D1DA
:1000A00080E061E004D180E060E03DD182E060E08A
:1000B000FED083E061E0FBD083E060E034D184E0F7
:1000C00060E0F5D084E061E02ED141B700E610E0B9
:1000D000C80160E170E014D0C80161E170E009D0AE
:1000E00081BF41B7C80162E170E00AD01F910F9152
:1000F0000895E199FECF7FBB6EBBE09A8DB3089562
:10010000E199FECF1CBA7FBB6EBB4DBB0FB6F89416
:10011000E29AE19A0FBE08951F920F920FB60F92C6
:1001200011242F933F938F939F93AF93BF9380910D
:10013000650090916600A0916700B09168003091D1
:100140006900232F2A5F2D3728F02D570396A11D14
:10015000B11D03C00296A11DB11D209369008093BB
:10016000650090936600A0936700B093680080914B
:10017000610090916200A0916300B09164000196CB
:10018000A11DB11D8093610090936200A093630054
:10019000B0936400BF91AF919F918F913F912F9148
:1001A0000F900FBE0F901F9018959B01AC017FB769
:1001B000F8948091610090916200A0916300B091E9
:1001C00064006FB508B602FE05C06F3F19F00196D6
:1001D000A11DB11D7FBFBA2FA92F982F8827860F89
:1001E000911DA11DB11D63E0880F991FAA1FBB1FA0
:1001F0006A95D1F7BC012EC0FFB7F89480916100D9
:1002000090916200A0916300B0916400EFB508B6D0
:1002100002FE05C0EF3F19F00196A11DB11DFFBF01
:10022000BA2FA92F982F88278E0F911DA11DB11DC0
:10023000E3E0880F991FAA1FBB1FEA95D1F7861B21
:10024000970B885E9340C0F22150304040405040B0
:1002500068517C4F211531054105510569F6089516
:10026000789480B7806880BF80B7806480BF8CB589
:1002700080648CBD8FEF8DBD80B7807F876080BF2D
:1002800089B7846089BF83B7887F83BF8AB58C7F35
:1002900081608ABD83B7877F83BF83B7887F836090
:1002A00083BF86B1887F866086B9379A0895282FE4
:1002B00030E0C901865D9F4FFC0144912C5D3F4FAA
:1002C000F9018491882371F1282F30E0F901E25E71
:1002D000FF4FE491AE2FB0E0205E3F4FF9018491D3
:1002E000E82FF0E0662351F42FB7F8948C91942F07
:1002F000909589238C93808189230BC0623061F4AF
:100300002FB7F8948C91942F909589238C938081AA
:10031000842B80832FBF08959FB7F8948C91842BF2
:100320008C939FBF0895282F482F50E0CA01865D07
:100330009F4FFC0134914C5D5F4FFA0194919923DA
:1003400031F1222319F48AB58F7304C0213021F4CE
:100350008AB58F7C8ABD05C0243019F48CB58F7C9A
:100360008CBDE92FF0E0E05EFF4FE491F0E0662302
:1003700041F49FB7F89480813095832380839FBF99
:1003800008959FB7F8948081832B80839FBF089541
:0C03900067DF7EDE6CDEFECFF894FFCF4E
:00000001FF
