:100000001AC034C033C032C0FAC130C02FC02EC0B5
:100010002DC02CC064C12AC029C028C027C0003709
:10002000003800360101010101010102040810201D
:1000300001030000000011241FBECFE5D2E0DEBFA7
:10004000CDBF11E0A0E6B0E0E2EEF6E002C0059020
:100050000D92AC31B107D9F711E0ACE1B1E001C0CC
:100060001D92AD38B107E1F736D339C3C9CF9F929E
:10007000AF92BF92CF92DF92EF92FF920F931F93B6
:10008000CF93DF935C018B01942E80E061E082D2FC
:10009000C0E0D0E06801EE24D7FCE094FE2C0DC057
:1000A000892D61E0B3D2C701B601F2D1892D60E09C
:1000B000ADD2C701B601ECD12196CA15DB0584F398
:1000C00080E060E067D2DF91CF911F910F91FF90A8
:1000D000EF90DF90CF90BF90AF909F9008950F93D7
:1000E0001F9380E060E092D280E061E053D280E034
:1000F00060E050D281E060E04DD282E061E04AD21F
:1001000083E061E047D283E060E080D284E061E098
:1001100041D284E060E07AD241B703E811E0C8013F
:1001200060E170E060D1C80161E170E055D181BF4C
:1001300041B7C80162E170E056D183E090E06BE422
:1001400070E040E050E093DF1F910F91089582E04E
:1001500061E05CD261E070E080E090E099D182E003
:1001600060E054D261E070E080E090E091D10895C9
:1001700020911F01222329F080917C018F5F8093C1
:100180007C0180917D0190917E01281759F0903576
:1001900010F08DE101C08BE0890F80937E012093E8
:1001A0007D0103C09C5E90937E0190917E01903A08
:1001B00008F488C020917F01309180013695279501
:1001C0003093800120937F0180917C01853028F05D
:1001D00038603093800120937F01905A90937E0184
:1001E00010927C0180917A01882309F45BC0809190
:1001F00081018F5F809381018C3008F463C020916E
:100200007F0130918001922F9F73ABE0B1E0FD013F
:1002100040E08081981729F04F5F31964031C9F74F
:1002200040E086E0369527958A95E1F790E08C913D
:10023000281729F09F5F11969031C9F790E0242F7D
:100240002295207F292B80912901882371F4209306
:100250008201822F84508D3440F010927A01809177
:1002600026018F5F80932601089580912901E82F50
:10027000F0E0E65DFE4F20838F5F8093290190912F
:10028000290180918201981750F010927A01809193
:1002900027018F5F8093270181E0809328011092CE
:1002A0008101089580917F019091800188539B4046
:1002B00049F481E080937A01109281011092290122
:1002C00010922801089580910A0160917B019ED1CE
:1002D0008091610060E09AD110921D0108951F92F3
:1002E0000F920FB60F9211242F933F934F935F936A
:1002F0006F937F938F939F93AF93BF93EF93FF93EE
:1003000080911C01882361F080911D01882341F4B4
:1003100080916000B0D190911E01982790931F01A9
:1003200080911D018823C1F1809120018F5F80930E
:100330002001815089F5E091210180912201E81787
:1003400058F0C1DF80912301909124010196909390
:1003500024018093230120C08091610090912501A8
:1003600021E030E0092E02C0220F331F0A94E2F789
:10037000F0E0EE59FF4F608162239F5F909325016B
:1003800045D180912501863038F010922501809169
:1003900021018F5F8093210180912001883010F02E
:1003A0001092200180911C01882329F080911D0169
:1003B000882309F4DDDEFF91EF91BF91AF919F910A
:1003C0008F917F916F915F914F913F912F910F90FE
:1003D0000FBE0F901F901895E199FECF7FBB6EBBAB
:1003E000E09A8DB30895E199FECF1CBA7FBB6EBB36
:1003F0004DBB0FB6F894E29AE19A0FBE08951F9292
:100400000F920FB60F9211242F933F938F939F93C8
:10041000AF93BF938091880190918901A0918A0147
:10042000B0918B0130918C01232F2A5F2D3728F05A
:100430002D570396A11DB11D03C00296A11DB11D2C
:1004400020938C018093880190938901A0938A0165
:10045000B0938B018091840190918501A0918601D8
:10046000B09187010196A11DB11D809384019093E5
:100470008501A0938601B0938701BF91AF919F91B1
:100480008F913F912F910F900FBE0F901F90189555
:100490009B01AC017FB7F894809184019091850114
:1004A000A0918601B09187016FB508B602FE05C024
:1004B0006F3F19F00196A11DB11D7FBFBA2FA92F63
:1004C000982F8827860F911DA11DB11D63E0880F0D
:1004D000991FAA1FBB1F6A95D1F7BC012EC0FFB799
:1004E000F8948091840190918501A0918601B0914A
:1004F0008701EFB508B602FE05C0EF3F19F001967F
:10050000A11DB11DFFBFBA2FA92F982F88278E0FCD
:10051000911DA11DB11DE3E0880F991FAA1FBB1FEC
:10052000EA95D1F7861B970B885E9340C0F2215065
:1005300030404040504068517C4F21153105410505
:10054000510569F60895789480B7806880BF80B7B8
:10055000806480BF8CB580648CBD8FEF8DBD80B70B
:10056000807F876080BF89B7846089BF83B7887FB9
:1005700083BF8AB58C7F81608ABD83B7877F83BF45
:1005800083B7887F836083BF86B1887F866086B9A2
:10059000379A0895282F30E0C901865D9F4FFC01EE
:1005A00044912C5D3F4FF9018491882371F1282FEC
:1005B00030E0F901E25EFF4FE491AE2FB0E0205E43
:1005C0003F4FF9018491E82FF0E0662351F42FB7F3
:1005D000F8948C91942F909589238C938081892312
:1005E0000BC0623061F42FB7F8948C91942F9095E2
:1005F00089238C938081842B80832FBF08959FB79C
:10060000F8948C91842B8C939FBF0895282F482FAA
:1006100050E0CA01865D9F4FFC0134914C5D5F4FF5
:10062000FA019491992331F1222319F48AB58F7339
:1006300004C0213021F48AB58F7C8ABD05C02430E6
:1006400019F48CB58F7C8CBDE92FF0E0E05EFF4F94
:10065000E491F0E0662341F49FB7F89480813095EF
:10066000832380839FBF08959FB7F8948081832B55
:1006700080839FBF0895282F482F50E0CA01865DD0
:100680009F4FFC0194914C5D5F4FFA0134913323ED
:1006900019F420E030E01DC0222319F48AB58F73CD
:1006A00004C0213021F48AB58F7C8ABD05C0243076
:1006B00019F48CB58F7C8CBDE32FF0E0EE5DFF4F1D
:1006C000E491F0E0808120E030E0892311F021E026
:1006D00030E0C901089537DF02DD39DDFECFF8943F
:0206E000FFCF4A
:1006E2000B0C2A2A2A2A2A2A382C00000000000091
:1006F20000000000000000000000000000000000F8
:1007020000000000000000000000000000000000E7
:1007120000000000000000000000000000000000D7
:1007220000000000000000000000000000000000C7
:1007320000000000000000000000000000000000B7
:1007420000000000000000000000000000000000A7
:100752000000000000000000000000000000000097
:100762000000000000000000000000000000000087
:100772000000000000000000000000000000000077
:10078200000000000000000000000A0D0E13151604
:0C079200191A1C232526292A2C323400B9
:00000001FF
